:020000040800F2
:10000000A8180020351C0008B9030008C503000823
:10001000CD030008D5030008DD0300080000000040
:10002000000000000000000000000000E5030008E0
:10003000F103000800000000FD03000809040008A7
:10004000951C0008951C0008951C0008951C0008CC
:10005000951C0008951C0008951C0008951C0008BC
:10006000951C0008951C0008951C0008951C0008AC
:10007000951C0008951C0008951C0008951C00089C
:10008000951C0008951C0008951C0008951C00088C
:1000900019040008951C0008951C0008951C000810
:1000A000951C0008951C0008951C0008951C00086C
:1000B0002D040008951C0008951C0008951C0008DC
:1000C000951C0008951C0008951C0008951C00084C
:1000D000951C0008951C0008951C0008951C00083C
:1000E000951C0008951C0008951C000800000000E5
:1000F0000000000000000000000000000000000000
:1001000000000000000000005FF808F180B590B02A
:1001100000AF78600023FB630023BB637B681B6830
:1001200003F00103002B00F0BD80704A6F4BDB69C8
:1001300043F08053D3616D4BDB6903F08053FB6068
:10014000FB686B4A6A4B1B6843F48073136000F0D2
:1001500013F9F86308E000F00FF90246FB6BD31ABD
:10016000642B01D90323BCE0614B1B6803F480734B
:10017000002BF0D05D4B1B6A03F44073BB63BB6B79
:10018000002B00F086807B685B6803F44072BB6BD9
:100190009A427ED0554B1B6A23F44073BB634FF4E5
:1001A00080333B633B6B93FAA3F3FB61FB69B3FAC8
:1001B00083F39B001A464F4B13441A4601231360E6
:1001C0004FF480337B627B6A93FAA3F33B623B6A12
:1001D000B3FA83F39B001A46464B13441A46002396
:1001E0001360424ABB6B1362BB6B03F00103002B2D
:1001F0004FD000F0C1F8F8630AE000F0BDF8024605
:10020000FB6BD31A41F28832934201D9032368E091
:1002100002237B637B6B93FAA3F3BB61BB69B3FAE5
:1002200083F35BB243F040035BB2DBB25B09DBB24A
:10023000012B02D12D4B1B6816E00223FB62FB6AE7
:1002400093FAA3F37B617B69B3FA83F35BB243F068
:1002500040035BB2DBB25B09DBB2022B02D1234B62
:100260001B6A01E0214B5B6A0222BA62BA6A92FA07
:10027000A2F23A613A69B2FA82F252B242F0400214
:1002800052B2D2B202F01F02D34003F00103002B9E
:10029000B3D01649154B1B6A23F440727B685B6828
:1002A00013430B627B681B6803F00203002B08D02A
:1002B0000E490E4B5B6823F440427B689B681343F6
:1002C0004B607B681B6803F01003002B08D00749C4
:1002D000064B5B6823F480027B68DB6813434B604A
:1002E000002318464037BD4680BD00BF00100240C5
:1002F000007000400004424280B500AF084A084B3D
:100300001B6843F010031360032000F05FF9002026
:1003100000F008F806F074F90023184680BD00BF0D
:100320000020024080B582B000AF786001F042FB4F
:100330000246094BA3FB02239B09184600F07CF9F7
:10034000002279684FF0FF3000F04CF90023184686
:100350000837BD4680BD00BFD34D621080B400AFEA
:10036000044B1B680133034A136000BFBD4680BCC9
:10037000704700BF0401002080B400AF024B1B682F
:100380001846BD4680BC70470401002080B584B08B
:1003900000AF78600023FB60FFF7EEFFF86000BF5E
:1003A000FFF7EAFF0246FB68D21A7B689A42F7D34E
:1003B00000BF1037BD4680BD80B400AF00BFBD4652
:1003C00080BC704780B400AFFEE700BF80B400AFD0
:1003D000FEE700BF80B400AFFEE700BF80B400AF0F
:1003E000FEE700BF80B400AF00BFBD4680BC7047D1
:1003F00080B400AF00BFBD4680BC704780B400AF82
:1004000000BFBD4680BC704780B500AFFFF7A6FFB8
:1004100000F03AF900BF80BD80B500AF024802F09D
:1004200095FB00BF80BD00BF640E002080B500AF0B
:10043000024808F0E9FB00BF80BD00BF240C00208B
:1004400080B485B000AF78607B6803F00703FB6081
:100450000C4BDB68BB60BA684FF6FF031340BB6010
:10046000FB681A02BB68134343F0BF6343F40033D5
:10047000BB60044ABB68D36000BF1437BD4680BC74
:10048000704700BF00ED00E080B400AF044BDB68B4
:1004900003F4E0631B0A1846BD4680BC704700BFEA
:1004A00000ED00E080B483B000AF0346FB71084963
:1004B00097F907305B09FA7902F01F02012000FA70
:1004C00002F241F8232000BF0C37BD4680BC7047C4
:1004D00000E100E080B483B000AF03463960FB71F7
:1004E00097F90730002B0BDA0D49FB7903F00F0366
:1004F000043B3A68D2B21201D2B20B441A7609E038
:10050000084997F907303A68D2B21201D2B20B44C7
:1005100083F8002300BF0C37BD4680BC704700BF86
:1005200000ED00E000E100E080B489B000AFF860C9
:10053000B9607A60FB6803F00703FB61FB69C3F1F4
:100540000703042B28BF0423BB61FB690433062B7C
:1005500002D9FB69033B00E000237B610122BB69F8
:1005600002FA03F35A1EBB681A407B699A400121C4
:100570007B6901FA03F3591E7B680B40134318464D
:100580002437BD4680BC704780B582B000AF78602C
:100590007B68013BB3F1807F01D301230FE00A4A5E
:1005A0007B68013B53600F214FF0FF30FFF792FF54
:1005B000054B00229A60044B07221A60002318465C
:1005C0000837BD4680BD00BF10E000E080B582B0B6
:1005D00000AF78607868FFF733FF00BF0837BD468B
:1005E00080BD00BF80B586B000AF0346B9607A60B9
:1005F000FB7300237B61FFF747FF78617A68B96876
:100600007869FFF791FF024697F90F3011461846B7
:10061000FFF760FF00BF1837BD4680BD80B582B0D0
:1006200000AF0346FB7197F907301846FFF73AFF12
:1006300000BF0837BD4680BD80B582B000AF78608E
:100640007868FFF7A1FF034618460837BD4680BD0E
:1006500080B483B000AF78607B68042B06D1094A70
:10066000084B1B6843F00403136005E0054A054B83
:100670001B6823F00403136000BF0C37BD4680BC29
:10068000704700BF10E000E080B500AF00F002F856
:1006900000BF80BD80B400AF00BFBD4680BC7047C6
:1006A00080B400AF154A154B1B6843F0010313607B
:1006B0001249124B5A68124B13404B600F4A0F4BB2
:1006C0001B6823F0847323F4803313600B4A0B4BB5
:1006D0001B6823F480231360084A084B5B6823F4EB
:1006E000FE035360054B4FF41F029A60054B4FF019
:1006F00000629A6000BFBD4680BC70470010024097
:100700000000FFF800ED00E090B5E5B000AF3B1D44
:1007100018600023C7F88C313B1D1B681B6803F071
:100720000103002B00F07581B84B5B6803F00C03EC
:10073000042B0BD0B54B5B6803F00C03082B5FD187
:10074000B24B5B6803F48033002B59D04FF4003375
:10075000C7F8CC30D7F8CC3093FAA3F3C7F8C83039
:10076000D7F8C830B3FA83F35BB243F020035BB22F
:10077000DBB25B09DBB2012B02D1A44B1B681BE08F
:100780004FF40033C7F87031D7F8703193FAA3F300
:10079000C7F8C430D7F8C430B3FA83F35BB243F080
:1007A00020035BB2DBB25B09DBB2022B02D1974BB9
:1007B0001B6A01E0954B5B6A4FF40032C7F86C216D
:1007C000D7F86C2192FAA2F2C7F8C020D7F8C0205F
:1007D000B2FA82F252B242F0200252B2D2B202F027
:1007E0001F02D34003F00103002B00F011813B1DD9
:1007F0001B685B68002B40F00B81012300F09DBE5D
:100800003B1D1B685B68B3F5803F06D17F4A7F4B79
:100810001B6843F48033136030E03B1D1B685B684A
:10082000002B0CD1794A794B1B6823F48033136079
:10083000764A764B1B6823F4802313601EE03B1D31
:100840001B685B68B3F5A02F0CD1704A6F4B1B6817
:1008500043F4802313606D4A6C4B1B6843F4803370
:1008600013600BE0694A694B1B6823F48033136003
:10087000664A664B1B6823F4802313603B1D1B688C
:100880005B68002B60D0FFF777FDC7F88C010AE0AA
:10089000FFF772FD0246D7F88C31D31A642B02D9C8
:1008A000032300F04ABE4FF40033C7F86831D7F88D
:1008B000683193FAA3F3C7F8BC30D7F8BC30B3FA69
:1008C00083F35BB243F020035BB2DBB25B09DBB2C4
:1008D000012B02D14D4B1B681BE04FF40033C7F8CE
:1008E0008831D7F8883193FAA3F3C7F8B830D7F82E
:1008F000B830B3FA83F35BB243F020035BB2DBB2F0
:100900005B09DBB2022B02D1404B1B6A01E03F4B7B
:100910005B6A4FF40032C7F88421D7F8842192FA39
:10092000A2F2C7F8B420D7F8B420B2FA82F252B2D9
:1009300042F0200252B2D2B202F01F02D34003F0C2
:100940000103002BA4D064E0FFF716FDC7F88C016B
:100950000AE0FFF711FD0246D7F88C31D31A642B59
:1009600002D9032300F0E9BD4FF40033C7F880310A
:10097000D7F8803193FAA3F3C7F8B030D7F8B03086
:10098000B3FA83F35BB243F020035BB2DBB25B09E3
:10099000DBB2012B02D11D4B1B681BE04FF400336F
:1009A000C7F87C31D7F87C3193FAA3F3C7F8AC30A1
:1009B000D7F8AC30B3FA83F35BB243F020035BB2F9
:1009C000DBB25B09DBB2022B02D1104B1B6A01E0E8
:1009D0000E4B5B6A4FF40032C7F87821D7F87821C4
:1009E00092FAA2F2C7F8A820D7F8A820B2FA82F2A9
:1009F00052B242F0200252B2D2B202F01F02D340F1
:100A000003F00103002BA4D103E000BF001002405B
:100A100000BF3B1D1B681B6803F00203002B00F0A6
:100A20009881BC4B5B6803F00C03002B0BD0B94BD7
:100A30005B6803F00C03082B74D1B64B5B6803F4BE
:100A40008033002B6ED10223C7F87431D7F874318C
:100A500093FAA3F3C7F8A430D7F8A430B3FA83F31A
:100A60005BB243F020035BB2DBB25B09DBB2012B6C
:100A700002D1A84B1B681AE00223C7F84031D7F80F
:100A8000403193FAA3F3C7F8A030D7F8A030B3FAF7
:100A900083F35BB243F020035BB2DBB25B09DBB2F2
:100AA000022B02D19B4B1B6A01E09A4B5B6A02222C
:100AB000C7F83C21D7F83C2192FAA2F2C7F89C2053
:100AC000D7F89C20B2FA82F252B242F0200252B21F
:100AD000D2B202F01F02D34003F00103002B07D073
:100AE0003B1D1B681B69012B02D0012300F025BDB3
:100AF0008848884B1B6823F0F8023B1D1B68596926
:100B0000F823C7F83831D7F8383193FAA3F3C7F888
:100B10009830D7F89830B3FA83F301FA03F313430C
:100B2000036016E13B1D1B681B69002B00F09480DD
:100B30000123C7F83431D7F8343193FAA3F3C7F857
:100B40009430D7F89430B3FA83F39B0003F18443D5
:100B500003F584031A4601231360FFF70DFCC7F861
:100B60008C010AE0FFF708FC0246D7F88C31D31A53
:100B7000022B02D9032300F0E0BC0223C7F8643142
:100B8000D7F8643193FAA3F207F190031A6007F1E2
:100B900090031B68B3FA83F35BB243F020035BB2AC
:100BA000DBB25B09DBB2012B02D15A4B1B681CE0A4
:100BB0000223C7F86031D7F8603193FAA3F207F146
:100BC0008C031A6007F18C031B68B3FA83F35BB2E2
:100BD00043F020035BB2DBB25B09DBB2022B02D134
:100BE0004C4B1B6A01E04B4B5B6A0222C7F85C214D
:100BF000D7F85C2192FAA2F107F18802116007F19F
:100C000088021268B2FA82F252B242F0200252B264
:100C1000D2B202F01F02D34003F00103002BA1D097
:100C20003C4C3C4B1B6823F0F8023B1D1B68596988
:100C3000F823C7F85831D7F8583193FAA3F007F1E1
:100C40008403186007F184031B68B3FA83F301FA85
:100C500003F3134323607CE00123C7F85431D7F832
:100C6000543193FAA3F207F180031A6007F180036D
:100C70001B68B3FA83F39B0003F1844303F58403F9
:100C80001A4600231360FFF777FBC7F88C010AE0D0
:100C9000FFF772FB0246D7F88C31D31A022B02D928
:100CA000032300F04ABC0223C7F85031D7F8503173
:100CB00093FAA3F207F17C031A6007F17C031B6827
:100CC000B3FA83F35BB243F020035BB2DBB25B09A0
:100CD000DBB2012B02D10F4B1B681FE00223C7F8C8
:100CE0004C31D7F84C3193FAA3F207F178031A602C
:100CF00007F178031B68B3FA83F35BB243F0200378
:100D00005BB2DBB25B09DBB2022B05D1014B1B6A84
:100D100004E000BF00100240B74B5B6A0222C7F834
:100D20004821D7F8482192FAA2F107F17402116024
:100D300007F174021268B2FA82F252B242F0200253
:100D400052B2D2B202F01F02D34003F00103002BD3
:100D50009ED13B1D1B681B6803F00803002B00F0AD
:100D6000F9803B1D1B689B69002B7BD00123C7F8D2
:100D70004431D7F8443193FAA3F207F170031A60B3
:100D800007F170031B68B3FA83F39B001A469B4B71
:100D900013441A4601231360FFF7EEFAC7F88C01DB
:100DA00009E0FFF7E9FA0246D7F88C31D31A022B93
:100DB00001D90323C1E30223C7F83031D7F830311A
:100DC00093FAA3F207F16C031A6007F16C031B6836
:100DD000B3FA83F35BB243F060035BB2DBB25B094F
:100DE000DBB2012B02D1844B1B681CE00223C7F845
:100DF0002C31D7F82C3193FAA3F207F168031A606B
:100E000007F168031B68B3FA83F35BB243F0600336
:100E10005BB2DBB25B09DBB2022B02D1764B1B6A01
:100E200001E0754B5B6A0222C7F82821D7F8282118
:100E300092FAA2F107F16402116007F164021268EC
:100E4000B2FA82F252B242F0600252B2D2B202F070
:100E50001F02D34003F00103002BA2D00120FFF7B3
:100E600095FA77E00123C7F82431D7F8243193FAB3
:100E7000A3F207F160031A6007F160031B68B3FA7D
:100E800083F39B001A465D4B13441A4600231360FC
:100E9000FFF772FAC7F88C0109E0FFF76DFA024616
:100EA000D7F88C31D31A022B01D9032345E302234F
:100EB000C7F82031D7F8203193FAA3F207F15C0389
:100EC0001A6007F15C031B68B3FA83F35BB243F06B
:100ED00060035BB2DBB25B09DBB2012B02D1464B94
:100EE0001B681CE00223C7F81C31D7F81C3193FAA9
:100EF000A3F207F158031A6007F158031B68B3FA0D
:100F000083F35BB243F060035BB2DBB25B09DBB23D
:100F1000022B02D1384B1B6A01E0374B5B6A02227D
:100F2000C7F81821D7F8182192FAA2F107F1540254
:100F3000116007F154021268B2FA82F252B242F022
:100F4000600252B2D2B202F01F02D34003F001039A
:100F5000002BA2D13B1D1B681B6803F00403002B70
:100F600000F03C81244A244BDB6943F08053D36179
:100F7000214BDB6903F0805207F108031A6007F187
:100F800008031B681E4A1E4B1B6843F480731360E2
:100F9000FFF7F2F9C7F88C0109E0FFF7EDF9024617
:100FA000D7F88C31D31A642B01D90323C5E2144B33
:100FB0001B6803F48073002BEFD03B1D1B68DB68BC
:100FC000012B06D10C4A0C4B1B6A43F00103136240
:100FD00036E03B1D1B68DB68002B13D1064A064B2D
:100FE0001B6A23F001031362034A034B1B6A23F0BD
:100FF0000403136224E000BF001002408004424258
:10100000007000403B1D1B68DB68052B0CD1AC4A0F
:10101000AB4B1B6A43F004031362A94AA84B1B6A3B
:1010200043F0010313620BE0A54AA54B1B6A23F0B2
:1010300001031362A24AA24B1B6A23F0040313624A
:101040003B1D1B68DB68002B64D0FFF795F9C7F8E0
:101050008C010BE0FFF790F90246D7F88C31D31AD8
:1010600041F28832934201D9032366E20223C7F892
:101070001431D7F8143193FAA3F207F150031A6030
:1010800007F150031B68B3FA83F35BB243F04003EC
:101090005BB2DBB25B09DBB2012B02D1884B1B6870
:1010A0001CE00223C7F81031D7F8103193FAA3F2ED
:1010B00007F14C031A6007F14C031B68B3FA83F382
:1010C0005BB243F040035BB2DBB25B09DBB2022BE5
:1010D00002D17B4B1B6A01E0794B5B6A0222C7F8A5
:1010E0000C21D7F80C2192FAA2F107F14802116005
:1010F00007F148021268B2FA82F252B242F040029C
:1011000052B2D2B202F01F02D34003F00103002B0F
:10111000A0D063E0FFF730F9C7F88C010BE0FFF7D0
:101120002BF90246D7F88C31D31A41F28832934218
:1011300001D9032301E20223C7F80831D7F80831A7
:1011400093FAA3F207F144031A6007F144031B6802
:10115000B3FA83F35BB243F040035BB2DBB25B09EB
:10116000DBB2012B02D1564B1B681CE00223C7F8EF
:101170000431D7F8043193FAA3F207F140031A605F
:1011800007F140031B68B3FA83F35BB243F04003FB
:101190005BB2DBB25B09DBB2022B02D1484B1B6AAC
:1011A00001E0474B5B6A0222C7F80021D7F8002113
:1011B00092FAA2F107F13C02116007F13C021268B9
:1011C000B2FA82F252B242F0400252B2D2B202F00D
:1011D0001F02D34003F00103002BA0D13B1D1B686D
:1011E000DB69002B00F0A881354B5B6803F00C0332
:1011F000082B00F09F813B1D1B68DB69022B40F030
:101200001B814FF08073C7F8FC30D7F8FC3093FA9D
:10121000A3F207F138031A6007F138031B68B3FA29
:1012200083F39B0003F1844303F584031A460023F0
:101230001360FFF7A1F8C7F88C0109E0FFF79CF8ED
:101240000246D7F88C31D31A022B01D9032374E15B
:101250004FF00073C7F8F830D7F8F83093FAA3F2DC
:1012600007F134031A6007F134031B68B3FA83F300
:101270005BB243F020035BB2DBB25B09DBB2012B54
:1012800002D10F4B1B681FE04FF00073C7F8F4301A
:10129000D7F8F43093FAA3F207F130031A6007F19C
:1012A00030031B68B3FA83F35BB243F020035BB2F5
:1012B000DBB25B09DBB2022B04D1014B1B6A03E0FA
:1012C000001002409F4B5B6A4FF00072C7F8F0209D
:1012D000D7F8F02092FAA2F107F12C02116007F181
:1012E0002C021268B2FA82F252B242F0200252B2DA
:1012F000D2B202F01F02D34003F00103002B9DD1B4
:101300003B1D1B681B6AB3F5803F09D18D498D4B8E
:101310005B6823F400323B1D1B689B6813434B60E2
:101320008848884B5B6823F474123B1D1B68196A5C
:101330003B1D1B685B6A0B43134343604FF0807394
:10134000C7F8EC30D7F8EC3093FAA3F207F1280392
:101350001A6007F128031B68B3FA83F39B0003F1BB
:10136000844303F584031A4601231360FFF704F84E
:10137000C7F88C0109E0FEF7FFFF0246D7F88C3171
:10138000D31A022B01D90323D7E04FF00073C7F81B
:10139000E830D7F8E83093FAA3F207F124031A6093
:1013A00007F124031B68B3FA83F35BB243F0200315
:1013B0005BB2DBB25B09DBB2012B02D1614B1B6874
:1013C0001DE04FF00073C7F8E430D7F8E43093FA2B
:1013D000A3F207F120031A6007F120031B68B3FA98
:1013E00083F35BB243F020035BB2DBB25B09DBB299
:1013F000022B02D1534B1B6A01E0524B5B6A4FF048
:101400000072C7F8E020D7F8E02092FAA2F107F1C5
:101410001C02116007F11C021268B2FA82F252B289
:1014200042F0200252B2D2B202F01F02D34003F0C7
:101430000103002B9FD07FE04FF08073C7F8DC30B2
:10144000D7F8DC3093FAA3F207F118031A6007F11A
:1014500018031B68B3FA83F39B0003F1844303F57D
:1014600084031A4600231360FEF786FFC7F88C0139
:1014700009E0FEF781FF0246D7F88C31D31A022B20
:1014800001D9032359E04FF00073C7F8D830D7F8DB
:10149000D83093FAA3F207F114031A6007F114038A
:1014A0001B68B3FA83F35BB243F020035BB2DBB299
:1014B0005B09DBB2012B02D1224B1B681DE04FF010
:1014C0000073C7F8D430D7F8D43093FAA3F207F1F9
:1014D00010031A6007F110031B68B3FA83F35BB2C1
:1014E00043F020035BB2DBB25B09DBB2022B02D11B
:1014F000144B1B6A01E0134B5B6A4FF00072C7F894
:10150000D020D7F8D02092FAA2F107F10C02116096
:1015100007F10C021268B2FA82F252B242F02002D3
:1015200052B2D2B202F01F02D34003F00103002BEB
:101530009FD101E0012300E00023184607F5CA7798
:10154000BD4690BD0010024080B598B000AF7860F5
:1015500039600023FB65A54B1B6803F007023B685D
:101560009A4210D2A149A14B1B6823F007023B68A5
:1015700013430B609D4B1B6803F007023B689A42C4
:1015800001D001238FE17B681B6803F00203002B6D
:1015900008D09749964B5B6823F0F0027B689B6804
:1015A00013434B607B681B6803F00103002B00F0C2
:1015B00027817B685B68012B46D14FF400337B6346
:1015C0007B6B93FAA3F33B633B6BB3FA83F35BB29E
:1015D00043F020035BB2DBB25B09DBB2012B02D12B
:1015E000834B1B6817E04FF40033BB65BB6D93FA68
:1015F000A3F3FB62FB6AB3FA83F35BB243F020030D
:101600005BB2DBB25B09DBB2022B02D1784B1B6A07
:1016100001E0774B5B6A4FF400327A657A6D92FA9B
:10162000A2F2BA62BA6AB2FA82F252B242F020026E
:1016300052B2D2B202F01F02D34003F00103002BDA
:1016400040F08F8001232EE17B685B68022B45D13F
:101650004FF000733B653B6D93FAA3F37B627B6AAB
:10166000B3FA83F35BB243F020035BB2DBB25B09F6
:10167000DBB2012B02D15E4B1B6817E04FF0007309
:10168000FB64FB6C93FAA3F33B623B6AB3FA83F30C
:101690005BB243F020035BB2DBB25B09DBB2022B2F
:1016A00002D1534B1B6A01E0514B5B6A4FF0007251
:1016B000BA64BA6C92FAA2F2FA61FA69B2FA82F2E8
:1016C00052B242F0200252B2D2B202F01F02D34014
:1016D00003F00103002B44D10123E4E002237B64E7
:1016E0007B6C93FAA3F3BB61BB69B3FA83F35BB280
:1016F00043F020035BB2DBB25B09DBB2012B02D10A
:101700003B4B1B6816E002233B643B6C93FAA3F34C
:101710007B617B69B3FA83F35BB243F020035BB276
:10172000DBB25B09DBB2022B02D1314B1B6A01E059
:101730002F4B5B6A0222FA63FA6B92FAA2F23A61C9
:101740003A69B2FA82F252B242F0200252B2D2B2F6
:1017500002F01F02D34003F00103002B01D101234B
:10176000A1E02349224B5B6823F003027B685B689E
:1017700013434B60FEF700FEF8657B685B68012B46
:1017800012D10AE0FEF7F8FD0246FB6DD31A41F2D2
:101790008832934201D9032385E0154B5B6803F03F
:1017A0000C03042BEED12BE07B685B68022B21D16C
:1017B0000AE0FEF7E1FD0246FB6DD31A41F28832E2
:1017C000934201D903236EE0094B5B6803F00C03DD
:1017D000082BEED114E0FEF7CFFD0246FB6DD31AC5
:1017E00041F28832934205D903235CE00020024095
:1017F000001002402E4B5B6803F00C03002BEAD173
:101800002C4B1B6803F007023B689A4210D9294908
:10181000284B1B6823F007023B6813430B60254BE2
:101820001B6803F007023B689A4201D001233AE0AB
:101830007B681B6803F00403002B08D01C491C4B79
:101840005B6823F4E0627B68DB6813434B607B6872
:101850001B6803F00803002B09D01549144B5B6883
:1018600023F460527B681B69DB0013434B6000F07C
:1018700027F801460E4B5B6803F0F002F023BB63D0
:10188000BB6B93FAA3F3FB60FB68B3FA83F322FA12
:1018900003F3094AD35C21FA03F3084A13600020DA
:1018A000FEF740FD002318466037BD4680BD00BFEF
:1018B0000010024000200240DC98000800000020D8
:1018C00090B48EB000AF364B3C1D186859689A68CA
:1018D000DB680FC4334A3B4612881A800023FB6240
:1018E0000023BB6200237B6300237B6200233B63F6
:1018F0002D4B5B68FB62FB6A03F00C03042B02D0E8
:10190000082B03D043E0294B3B6343E0FB6A03F41D
:1019100070124FF47013FB61FB6993FAA3F3BB6180
:10192000BB69B3FA83F322FA03F307F138021344D5
:1019300013F8343C7B62FB6A03F48033002B1ED027
:10194000194B5B6803F400324FF400333B623B6A8F
:1019500093FAA3F37B617B69B3FA83F322FA03F36F
:1019600007F13802134413F8383CBB620F4ABB6AD4
:10197000B2FBF3F37A6A02FB03F37B6304E07B6A56
:101980000B4A02FB03F37B637B6B3B6302E0074B79
:101990003B6300BF3B6B18463837BD4690BC704771
:1019A000F4980008049900080010024000127A0020
:1019B00000093D0080B400AF024B1B681846BD46CD
:1019C00080BC70470000002080B584B000AF786014
:1019D0000B46FB700023FB730423032281217868EC
:1019E00004F034FC102004F0E1FD02467B68C3F8EB
:1019F00018227B68D3F81832002B02D10123FB7325
:101A000004E07B68D3F8183200221A73FB7B184677
:101A10001037BD4680BD00BF80B582B000AF786092
:101A20000B46FB708121786804F04EFC7B68D3F88C
:101A30001832002B09D07B68D3F81832184604F00E
:101A4000C1FD7B680022C3F818220023184608371E
:101A5000BD4680BD80B586B000AF78603960002398
:101A6000FB8200233B617B68D3F81832FB603B6844
:101A70001B7803F06003002B44D0202B7DD13B6802
:101A80005B78023B092B36D801A252F823F000BF45
:101A9000E71A0008C71A0008F71A0008F71A000822
:101AA000F71A0008F71A0008F71A0008F71A0008D2
:101AB000D51A0008B91A00083B685B88DBB21A46E1
:101AC000FB681A601DE0FB6801221946786807F080
:101AD00073FE16E03B685B881B0A9BB2DBB21A46BA
:101AE000FB685A600DE0FB680433012219467868F0
:101AF00007F062FE05E03968786807F0B1FD02235F
:101B00003CE03AE03B685B780A2B27D00B2B2DD0CA
:101B1000062B32D13B685B881B0A9BB2222B08D173
:101B20003B68DB88412B28BF4123FB82154B3B617F
:101B30000DE03B685B881B0A9BB2212B07D1124B3F
:101B40003B613B68DB88092B28BF0923FB82FB8AAA
:101B50001A463969786807F02FFE0EE0FB680833F3
:101B600001221946786807F027FE06E03B685B888B
:101B7000DBB21A46FB689A6000BF0023184618378C
:101B8000BD4680BD780000206000002080B586B092
:101B900000AFF860B9601346FB80FB68D3F81832D9
:101BA0007B61FB6893F8FC31032B0CD17B691B7BB9
:101BB000002B08D17B6901221A73FB88BA68812146
:101BC000F86804F07FFC002318461837BD4680BD36
:101BD00080B483B000AF78607B6822221A80034B08
:101BE00018460C37BD4680BC704700BF3C00002043
:101BF00080B483B000AF78600B46FB707B68D3F88D
:101C0000183200221A73002318460C37BD4680BCD8
:101C1000704700BF80B483B000AF78607B680A2251
:101C20001A80034B18460C37BD4680BC704700BF76
:101C30006C00002080B582B000AF114B7B60114B6F
:101C40003B6007E03B681A1D3A607A68111D7960B5
:101C500012681A603B680C4A9342F3D30B480C4954
:101C60004FF000028842B8BF40F8042BFADBFEF7C1
:101C700017FD02F0CFFC00BF0837BD4680BD00BF96
:101C80000A9C00080000002004010020040100203C
:101C9000A814002080B400AFFEE700BF80B483B07A
:101CA00000AF074B1B687B607B6843F038037B60A9
:101CB000034A7B68136000BF0C37BD4680BC704789
:101CC0000030014080B483B000AF0346FB7100BF19
:101CD0000B4B9B6803F00203002BF9D0084AFB79F9
:101CE000D36000BF064B9B6803F00103002BF9D0C3
:101CF000034BDB68DBB218460C37BD4680BC70472F
:101D00000030014080B500AFFF20FFF7DBFF034646
:101D1000184680BD80B582B000AF0A4B32221A60EF
:101D2000FFF7F0FFFFF7EEFF0346FB71FB79FF2B98
:101D300003D0044B1B68002BF4D1FB7918460837FD
:101D4000BD4680BD0C01002080B500AF01221021EE
:101D5000034804F075F8FFF7D5FF00BF80BD00BF52
:101D60000008014080B400AF3D4A3D4B9B6943F001
:101D7000010393613A4A3A4B9B6943F00403936130
:101D8000384A384B1B6843F440331360354A354BAF
:101D90001B6823F440231360324B10221A61314A2E
:101DA000304B1B6843F4401313602E4A2D4B1B68C5
:101DB00023F4400313602B4A2A4B1B6843F40003AF
:101DC0001360284A274B1B6823F040731360254A91
:101DD000244B1B6823F040631360224A214B1B688D
:101DE00043F0006313601F4B40221A611D4A1D4BD4
:101DF0001B6843F0405313601A4A1A4B1B6823F0C8
:101E000040431360174A174B1B6843F000431360AD
:101E1000134A134B9B6943F480539361124B002286
:101E20005A60114B04221A600F4A0F4B1B6843F093
:101E3000380313600C4A0C4B1B6843F48073136027
:101E4000094A094B1B6843F400731360064A064BAA
:101E50001B6843F04003136000BFBD4680BC704761
:101E600000100240000801400030014080B59CB0E5
:101E700000AF3E4A3D4B9B6943F0010393613B4AEF
:101E80003A4B9B6943F0040393610823BB60112321
:101E9000FB6003237B6107F108031946344803F014
:101EA00059FE00220821324803F0CAFF314B1922A3
:101EB0001A6000BF2F4B1B68002BFBD11023BB60A7
:101EC0000123FB6003237B6107F1080319462848BF
:101ED00003F040FE01221021254803F0B1FFA023AA
:101EE000BB6003237B610223FB6007F108031946F3
:101EF0001F4803F02FFE4023BB6003237B610023B8
:101F0000FB6001233B6107F108031946184803F001
:101F100021FE164A154B9B6943F480539361164B7F
:101F2000BB6100233B624FF48273FB6100237B6241
:101F30000023BB620023FB624FF400733B63382332
:101F40007B630023BB6300233B6407237B6407F1AF
:101F50001803184603F098FD074A074B1B6843F027
:101F60004003136000BF7037BD4680BD00100240C3
:101F700000080140080100200030014080B584B015
:101F800000AF1E4B1B6803F00103002B08D1002299
:101F900010211B4803F054FFFFF7BCFEFFF7D4FEEF
:101FA000184A184B9B6903F001039361154A154BBE
:101FB0009B6903F004039361E0233B600323FB6010
:101FC00000237B603B4619460D4803F0C3FD1023F8
:101FD0003B603B4619460A4803F0BCFD012208213C
:101FE000074803F02DFF054B1B6843F00103034A2C
:101FF000136000BF1037BD4680BD00BFBC0000208D
:10200000000801400010024080B500AF08210548DB
:1020100003F0FEFE0346012B14BF01230023DBB2B5
:10202000184680BD0008014090B585B000AF7860CB
:102030003960214B0A221A60FFF764FE0346FB73E6
:10204000FB7BFF2B03D11C4B1B68002BF4D1FB7BCC
:10205000FE2B01D000232AE07C68631C7B60FF20FC
:10206000FFF730FE034623707C68631C7B60FF2013
:10207000FFF728FE034623707C68631C7B60FF200B
:10208000FFF720FE034623707C68631C7B60FF2003
:10209000FFF718FE034623703B68043B3B603B6838
:1020A000002BD9D1FFF72EFEFFF72CFE0123184697
:1020B0001437BD4690BD00BF0801002080B584B034
:1020C00000AF78600B46FB70FFF724FE0346FF2B42
:1020D00001D000232EE0FB781846FFF7F3FDFB78D4
:1020E000FD2B26D00023FB737B685A1C7A601B787B
:1020F0001846FFF7E7FD7B685A1C7A601B78184684
:10210000FFF7E0FDFB7B013BFB73FB7B002BEBD17F
:10211000FF20FFF7D7FDFF20FFF7D4FDFFF7F2FD0B
:102120000346BB73BB7B03F01F03052B01D00023C9
:1021300000E0012318461037BD4680BD80B584B04D
:1021400000AF03463960FB7197F90730002B0EDAB8
:10215000FB7903F07F03FB7100217720FFF7EEFF8F
:102160000346BB73BB7B012B01D9BB7B51E0012232
:1021700010212A4803F064FE00221021274803F0B2
:102180005FFEFFF7C7FD0346FF2B01D0FF2340E0B2
:10219000FB791846FFF796FD3B681B0EDBB218462D
:1021A000FFF790FD3B681B0CDBB21846FFF78AFD7A
:1021B0003B681B0ADBB21846FFF784FD3B68DBB2C5
:1021C0001846FFF77FFD0123FB73FB79402B01D1FC
:1021D0009523FB73FB79482B01D18723FB73FB7B92
:1021E0001846FFF76FFDFB794C2B01D1FFF78AFDF5
:1021F0000A23FB73FFF786FD0346BB7397F90E3086
:10220000002B05DAFB7B013BFB73FB7B002BF1D141
:10221000BB7B18461037BD4680BD00BF000801409B
:1022200090B585B000AF0346FB71FB79002B01D060
:102230000123B5E05C4B1B6803F00203002B02D0C6
:10224000594B1B68ACE0FFF78DFDFFF727FD0A2314
:10225000FB7304E0FFF756FDFB7B013BFB73FB7B4D
:10226000002BF7D100237B7300214020FFF766FF8E
:102270000346012B40F084804C4B64221A604FF4DB
:10228000D5714820FFF75AFF0346012B4DD100239B
:10229000FB730CE0FC7BFFF735FD03461A4607F1A4
:1022A0001003234403F8082CFB7B0133FB73FB7BF7
:1022B000032BEFD9BB7A012B62D1FB7AAA2B5FD11A
:1022C00000BF3A4B1B68002B07D04FF08041E9203C
:1022D000FFF734FF0346002BF3D1344B1B68002B70
:1022E0004ED000217A20FFF729FF0346002B47D16B
:1022F0000023FB730CE0FC7BFFF704FD03461A464A
:1023000007F11003234403F8082CFB7B0133FB7314
:10231000FB7B032BEFD93B7A03F04003002B01D06A
:102320000C2300E004237B732AE00021E920FFF75F
:1023300005FF0346012B04D802237B73E923BB73FB
:1023400003E001237B734123BB7300BF174B1B6862
:10235000002B07D0BB7B00211846FFF7EFFE03469A
:10236000002BF3D1114B1B68002B07D04FF40071E9
:102370005020FFF7E3FE0346002B01D000237B73C0
:102380000B4A7B7B1370FFF7DFFC7B7B002B05D0B8
:10239000054B1B6823F00103034A1360024B1B68C3
:1023A00018461437BD4690BDBC000020080100202F
:1023B0001001002080B483B000AF0346FB71FB79AD
:1023C000002B01D0012301E0034B1B6818460C379A
:1023D000BD4680BC704700BFBC00002080B584B003
:1023E00000AFB9607A601A460346FB731346BB73AD
:1023F000FB7B002B02D1BB7B002B01D104234CE0E3
:10240000284B1B6803F00103002B01D0032344E099
:10241000254B1B7803F00803002B02D17B685B027D
:102420007B60BB7B012B11D179685120FFF786FEC1
:102430000346002B29D14FF40071B868FFF7F4FD73
:102440000346012B21D10023BB731EE07968522083
:10245000FFF774FE0346002B17D14FF40071B868E4
:10246000FFF7E2FD0346002B0AD0BB6803F50073BB
:10247000BB60BB7B013BBB73BB7B002BEDD100E0A2
:1024800000BF00214C20FFF759FEFFF75DFCBB7B2E
:10249000002B14BF01230023DBB218461037BD46C2
:1024A00080BD00BFBC0000201001002080B584B0BA
:1024B00000AFB9607A601A460346FB731346BB73DC
:1024C000FB7B002B02D1BB7B002B01D1042362E0FC
:1024D000334B1B6803F00103002B01D003235AE0A8
:1024E0002F4B1B6803F00403002B01D0022352E0A2
:1024F0002C4B1B7803F00803002B02D17B685B0296
:102500007B60BB7B012B10D179685820FFF716FE4A
:102510000346002B37D1FE21B868FFF7CFFD0346F5
:10252000012B30D10023BB732DE01E4B1B7803F031
:102530000603002B04D0BB7B1946D720FFF7FEFD16
:1025400079685920FFF7FAFD0346002B1BD1FC21C7
:10255000B868FFF7B3FD0346002B0AD0BB6803F54C
:102560000073BB60BB7B013BBB73BB7B002BEED11D
:1025700000E000BFFD210020FFF7A0FD0346002B77
:1025800001D10123BB73FFF7DFFBBB7B002B14BF23
:1025900001230023DBB218461037BD4680BD00BFC3
:1025A000BC0000201001002090B58BB000AF0346A6
:1025B0003A60FB710B46BB713B683B62FB79002BB9
:1025C00001D00423BDE1012387F82730BB79042B18
:1025D00027D13B6A1B78012B0ED0022B12D0002B87
:1025E0001BD1FFF711FD0346002B01D0FFF7C6FCFE
:1025F000002387F82730A2E1FFF738FC002387F893
:1026000027309CE13B6A5C1CFFF7FEFC0346DBB213
:102610002370002387F8273091E1042387F82730BF
:102620008DE1C24B1B6803F00103002B01D0032393
:1026300087E1BB790E2B00F2698101A252F823F0E9
:102640007D2600089B2600084D2700085D2700080E
:102650000D2900080D2900080D2900080D29000882
:102660000D2900080D2900084F2800085F280008E0
:1026700083280008A7280008E52800080022102168
:10268000AB4803F0DDFBFFF745FB0346FF2B40F0B3
:102690004181002387F827303CE100214920FFF7E2
:1026A0004DFD0346002B40F0378107F10C0310214C
:1026B0001846FFF7B9FC0346012B40F02D813B7B08
:1026C0009B09DBB2012B0ED17B7D9AB23B7D9BB285
:1026D0001B029BB213449BB20133FB83FB8B9A0218
:1026E0003B681A602EE07B7C03F00F03DAB2BB7DFF
:1026F000DB09DBB21344DAB27B7D5B00DBB203F0B3
:102700000603DBB21344DBB2023387F826303B7D8D
:102710009B09DBB29AB2FB7C9BB29B009BB2134439
:102720009AB2BB7C9B029BB203F440639BB21344FE
:102730009BB20133FB83FA8B97F82630093B9A4012
:102740003B681A60002387F82730E5E03B684FF4C8
:1027500000721A80002387F82730EEE0754B1B7853
:1027600003F00403002B2FD00021CD20FFF7E6FC5F
:102770000346002B40F0D280FFF7C4FA07F10C03A8
:1027800010211846FFF750FC0346012B40F0C6808D
:10279000302387F8263006E0FFF7B4FA97F82630A2
:1027A000013B87F8263097F82630002BF4D1BB7D0B
:1027B0001B09DBB21A46102303FA02F23B681A60C7
:1027C000002387F82730A9E000214920FFF7B6FC55
:1027D0000346002B40F0A28007F10C03102118469D
:1027E000FFF722FC0346012B40F09880514B1B78E9
:1027F00003F00203002B12D0BB7D5B0003F07E03CD
:10280000FA7DD209D2B213445A1C7B7E9B09DBB2FB
:10281000013B02FA03F31A463B681A6013E0BB7DE2
:102820009B109BB203F01F030133FA7DD20002F02C
:102830001802F97D4909C9B20A44013202FB03F3C7
:102840001A463B681A60002387F8273066E0394B48
:102850001A783B6A1A70002387F827306DE0002150
:102860004920FFF76BFC0346002B59D11021386A31
:10287000FFF7DAFB0346012B52D1002387F82730FC
:102880004EE000214A20FFF759FC0346002B49D1B6
:102890001021386AFFF7C8FB0346012B42D1002301
:1028A00087F827303EE000217A20FFF747FC0346F7
:1028B000002B39D1042387F826300BE03C6A631CD7
:1028C0003B62FFF71FFA0346237097F82630013B5F
:1028D00087F8263097F82630002BEFD1002387F8B1
:1028E000273021E00021CD20FFF728FC0346002BF4
:1028F00022D1FFF707FA4021386AFFF795FB03461C
:10290000012B19D1002387F8273015E0042387F81D
:10291000273012E000BF10E000BF0EE000BF0CE067
:1029200000BF0AE000BF08E000BF06E0BC000020D6
:10293000000801401001002000BFFFF705FA97F8DA
:10294000273018462C37BD4690BD00BFF0B58BB080
:1029500006AF78600023FB607B68002B01D1012368
:10296000CAE07B6893F8E933DBB2002B06D17B68C1
:10297000002283F8E823786803F02AFB7B680322AF
:1029800083F8E9237B681B68184601F0ABFF7B687E
:102990001B683B607E686D4606F110040FCC0FC5C6
:1029A00023682B60331D0ECB386801F071FF7B6804
:1029B0001B680021184601F0B1FF0023FB6037E0DF
:1029C0007A68FB685B011344293301221A70FB68A3
:1029D000D9B27A68FB685B01134428330A461A703F
:1029E000FB6899B27A68FB685B01134434330A468A
:1029F0001A807A68FB685B0113442B3300221A703B
:102A00007A68FB685B011344383300221A607A68E5
:102A1000FB685B0113443C3300221A607A68FB6850
:102A200002335B01134400221A60FB680133FB6030
:102A3000FB680E2BC4D90023FB603CE07A68FB687E
:102A40005B01134403F2092300221A70FB68D9B218
:102A50007A68FB685B01134403F502730A461A7037
:102A6000FB6899B27A68FB685B01134434330A4609
:102A70001A807A68FB685B01134403F20B2300227F
:102A80001A707A68FB685B01134403F50673002231
:102A90001A607A68FB685B01134403F50773002230
:102AA0001A607A68FB6811335B01134400221A60D4
:102AB000FB680133FB60FB680E2BBFD97B681B688A
:102AC0003B607E686D4606F110040FCC0FC523688D
:102AD0002B60331D0ECB386801F02CFF7B68002281
:102AE00083F824207B68012283F8E9237B681B6834
:102AF000184602F025FF002318461437BD46F0BDE6
:102B000080B582B000AF78607B6893F8E833012B22
:102B100001D1022316E07B68012283F8E82301211A
:102B2000786803F059FD7B681B68184602F0FEFECA
:102B30007B681B68184601F0BBFE7B68002283F8A7
:102B4000E823002318460837BD4680BD80B584B011
:102B500000AF78600023FB607B681B68184602F0BA
:102B6000F9FE034603F40043002B02D0786800F01E
:102B7000DBFA7B681B68184602F0ECFE034603F4A0
:102B80008063002B12D07B681B687A681268B2F8E9
:102B9000442092B222F4806292B2A3F84420786872
:102BA00003F08CFA0021786800F0C8F87B681B6895
:102BB000184602F0CFFE034603F48043002B0BD0EF
:102BC0007B681B687A681268B2F8442092B222F4DB
:102BD000804292B2A3F844207B681B68184602F03A
:102BE000B9FE034603F40053002B0BD07B681B682F
:102BF0007A681268B2F8442092B222F4005292B27B
:102C0000A3F844207B681B68184602F0A3FE034625
:102C100003F48053002B23D07B681B687A6812680A
:102C2000B2F8402092B222F0040292B2A3F84020FF
:102C30004FF43D43FB607B681B68FA6892B2A3F8CF
:102C40004020786803F076FA7B681B687A6812681F
:102C5000B2F8442092B222F4805292B2A3F84420F7
:102C60007B681B68184602F075FE034603F4006398
:102C7000002B30D07B681B687A681268B2F8442059
:102C800092B222F4006292B2A3F844207B681B68DF
:102C90007A681268B2F8402092B242F0080292B20A
:102CA000A3F840207B681B687A681268B2F840205D
:102CB00092B242F0040292B2A3F840207B681B68F3
:102CC000184602F047FE034603F48053002B02D15E
:102CD000786803F015FA7B681B68184602F03AFE24
:102CE000034603F40073002B0ED07B681B687A68E0
:102CF0001268B2F8442092B222F4007292B2A3F8A1
:102D00004420786803F0CCF97B681B68184602F011
:102D100021FE034603F48073002B0BD07B681B68F5
:102D20007A681268B2F8442092B222F4807292B2A9
:102D3000A3F8442000BF1037BD4680BD80B582B0E7
:102D400000AF78600B46FB707B6893F8E833012B8B
:102D500001D1022313E07B68012283F8E8237B681A
:102D6000FA7883F824207B681B68FA7811461846A5
:102D700002F0C8FD7B68002283F8E8230023184690
:102D80000837BD4680BD00BF80B584B000AF786015
:102D9000084611461A460346FB700B463B80134615
:102DA000BB700023FB720023FB6097F90330002BFC
:102DB00008DAFB7803F07F035B0128337A68134459
:102DC000FB6008E0FB7803F07F035B0103F502730F
:102DD0007A681344FB60FB7803F07F03DAB2FB6888
:102DE0001A7097F90330DBB2DB09DBB21A46FB68D5
:102DF0005A703A88FB681A61FB68BA78DA707B68A7
:102E000093F8E833012B01D102230EE07B68012205
:102E100083F8E8237B681B68F968184601F0AAFD6F
:102E20007B68002283F8E823FB7A18461037BD46FA
:102E300080BD00BF80B584B000AF78600B46FB70EA
:102E40000023FB6097F90330002B08DAFB7803F0CE
:102E50007F035B0128337A681344FB6008E0FB784A
:102E600003F07F035B0103F502737A681344FB6090
:102E7000FB7803F07F03DAB2FB681A7097F903302E
:102E8000DBB2DB09DBB21A46FB685A707B6893F849
:102E9000E833012B01D102230EE07B68012283F885
:102EA000E8237B681B68F968184602F02BF87B68FA
:102EB000002283F8E823002318461037BD4680BD62
:102EC00080B586B000AFF8607A603B600B46FB725D
:102ED00000237B61FB7A03F07F035B0103F5027340
:102EE000FA6813447B617B697A685A617B693A6846
:102EF0009A617B690022DA617B6900225A70FB7A51
:102F000003F07F03DAB27B691A70FB6893F8E83349
:102F1000012B01D102231AE0FB68012283F8E82388
:102F2000FB7A03F07F03002B06D1FB681B687969ED
:102F3000184602F06FF905E0FB681B6879691846CE
:102F400002F068F9FB68002283F8E82300231846A2
:102F50001837BD4680BD00BF80B586B000AFF860B1
:102F60007A603B600B46FB7200237B61FB7A03F0C7
:102F70007F035B012833FA6813447B617B697A68BD
:102F80005A617B693A689A617B690022DA617B69E0
:102F900001225A70FB7A03F07F03DAB27B691A7060
:102FA000FB6893F8E833012B01D102231AE0FB6898
:102FB000012283F8E823FB7A03F07F03002B06D17C
:102FC000FB681B687969184602F024F905E0FB6884
:102FD0001B687969184602F01DF9FB68002283F826
:102FE000E823002318461837BD4680BD80B584B05D
:102FF00000AF78600B46FB700023FB6097F903304D
:10300000002B08DAFB7803F07F035B0128337A6832
:103010001344FB6006E0FB785B0103F502737A68FA
:103020001344FB60FB6801229A70FB7803F07F0376
:10303000DAB2FB681A7097F90330DBB2DB09DBB256
:103040001A46FB685A707B6893F8E833012B01D16C
:1030500002231CE07B68012283F8E8237B681B685D
:10306000F968184602F064FBFB7803F07F03002B3D
:1030700008D17B681A687B6803F57B731946104694
:1030800002F07AFC7B68002283F8E82300231846CC
:103090001037BD4680BD00BF80B584B000AF7860FA
:1030A0000B46FB700023FB6097F90330002B08DA16
:1030B000FB7803F07F035B0128337A681344FB60DD
:1030C00006E0FB785B0103F502737A681344FB604A
:1030D000FB6800229A70FB7803F07F03DAB2FB688A
:1030E0001A7097F90330DBB2DB09DBB21A46FB68D2
:1030F0005A707B6893F8E833012B01D102230EE06C
:103100007B68012283F8E8237B681B68F96818460E
:1031100002F06EFB7B68002283F8E8230023184648
:103120001037BD4680BD00BF90B589B000AF786054
:103130000023BB610023FB830023FB750023FB817D
:103140000023BB8113E3FB899BB2DBB203F00F03C7
:10315000FB75FB7D002B40F02E81FB899BB203F0B9
:103160001003002B4ED17B681A687B681B681B8894
:103170009BB223F4E14323F070039BB213807B687E
:103180002833BB617B681B68B3F850309BB21A468A
:10319000BB691B78DB00134402335B001A467B6873
:1031A0001B68134403F580631B689BB2C3F30902D9
:1031B000BB69DA61BB695A69BB69DB691A44BB69DF
:1031C0005A610021786802F053FF7B6893F824303D
:1031D000DBB2002B00F0CB82BB699B69002B40F077
:1031E000C6827B681B687A6892F82420D2B262F0AB
:1031F0007F02D2B292B2A3F84C207B68002283F8FF
:103200002420B4E27B6803F50273BB617B681B6812
:103210001B889BB2BB81BB899BB203F40063002B6C
:1032200032D07B681B68B3F850309BB21A46BB693A
:103230001B78DB00134406335B001A467B681B686F
:10324000134403F580631B689BB2C3F30902BB6997
:10325000DA617B6818687B6803F57B71BB699A88C3
:10326000BB69DB699BB202F0D9FB7B681A687B689B
:103270001B681B8899B240F68F730B409BB213807A
:10328000786802F0CBFE72E2BB899BB21BB2002BC6
:1032900080F26D827B681A687B681B681B8899B214
:1032A00040F68F730B409BB213807B681B68B3F8AA
:1032B00050309BB21A46BB691B78DB0013440633BF
:1032C0005B001A467B681B68134403F580631B6828
:1032D0009BB2C3F30902BB69DA61BB69DB69002BEE
:1032E00011D07B681868BB695969BB699A88BB694A
:1032F000DB699BB202F092FBBB695A69BB69DB696F
:103300001A44BB695A610021786802F099FE7B6813
:103310001B68B3F850309BB206335B001A467B68DB
:103320001B68134403F580633B61BB691B693E2B3B
:1033300018D9BB691B695B09BB83BB691B6903F0B7
:103340001F03002B02D1BB8B013BBB83BB8B9B02BA
:103350009BB26FEA43436FEA53439BB21A463B6901
:103360001A6012E0BB691B695B08BB83BB691B6900
:1033700003F00103002B02D0BB8B0133BB83BB8B5B
:103380009B029BB21A463B691A607B681B681B88CC
:103390009BB223F4804323F070039CB284F48053E7
:1033A0009CB284F400539CB27B681A689A4B234306
:1033B0009BB21380DBE17B681B681A46FB7D9B0098
:1033C00013441B889BB2BB81BB899BB21BB2002BF1
:1033D00080F2D3807B681B681A46FB7D9B001A44F1
:1033E0007B681B681946FB7D9B000B441B8899B2C8
:1033F00040F68F730B409BB21380FB7D5B0103F59E
:1034000002737A681344BB61BB699B7A002B23D19A
:103410007B681B68B3F850309BB21A46BB691B78B7
:10342000DB00134406335B001A467B681B681344B9
:1034300003F580631B689BB2C3F30903FB83FB8B1B
:10344000002B75D07B681868BB695969BB699A887D
:10345000FB8B02F0E3FA6BE07B681B681A46BB69E2
:103460001B789B0013441B889BB203F48043002B02
:1034700023D07B681B68B3F850309BB21A46BB69F7
:103480001B78DB00134402335B001A467B681B6821
:10349000134403F580631B689BB2C3F30903FB83EA
:1034A000FB8B002B2CD07B681868BB695969BB6902
:1034B000DA88FB8B02F0B2FA22E07B681B68B3F873
:1034C00050309BB21A46BB691B78DB0013440633AD
:1034D0005B001A467B681B68134403F580631B6816
:1034E0009BB2C3F30903FB83FB8B002B08D07B68E3
:1034F0001868BB695969BB691A89FB8B02F08EFA9F
:103500007B681B681A46BB691B789B001A447B6862
:103510001B681946BB691B789B000B441B8899B23A
:1035200040F60F730B4099B23C4B0B439BB2138098
:10353000BB69DA69FB8B1A44BB69DA61BB695A69FA
:10354000FB8B1A44BB695A61BB699B69002B04D091
:10355000FA8BBB691B699A4206D2BB691B78194674
:10356000786802F06DFD08E0BB691978BB695A699B
:10357000BB699B697868FFF7A3FCBB899BB203F02A
:103580008003002B00F0F380FB7D5B0128337A6819
:103590001344BB617B681B681A46FB7D9B001A4481
:1035A0007B681B681946FB7D9B000B441B889BB204
:1035B00023F4E14323F070039BB21380BB699B7A31
:1035C000002B2DD17B681B68B3F850309BB21A4694
:1035D000BB691B78DB00134402335B001A467B682F
:1035E0001B68134403F580631B689BB2C3F3090295
:1035F000BB69DA61BB69DB69002B00F085807B6801
:103600001868BB695969BB699A88BB69DB699BB259
:1036100002F0BEF978E000BF8080FFFFC080FFFFAE
:103620007B681B681A46BB691B789B0013441B8888
:103630009BB203F04003002B27D07B681B68B3F8D4
:1036400050309BB21A46BB691B78DB00134402332F
:103650005B001A467B681B68134403F580631B6894
:103660009BB2C3F30902BB69DA61BB69DB69002B5A
:1036700032D07B681868BB695969BB69DA88BB6955
:10368000DB699BB202F084F926E07B681B68B3F823
:1036900050309BB21A46BB691B78DB0013440633DB
:1036A0005B001A467B681B68134403F580631B6844
:1036B0009BB2C3F30902BB69DA61BB69DB69002B0A
:1036C0000AD07B681868BB695969BB691A89BB69EC
:1036D000DB699BB202F05CF97B681B681A46BB6928
:1036E0001B789B001A447B681B681946BB691B78D2
:1036F0009B000B441B8899B240F60F730B4099B2A4
:10370000234B0B439BB213807B681B68B3F850308C
:103710009BB21A46BB691B78DB00134402335B0083
:103720001A467B681B68134403F580631B689BB2D1
:10373000C3F30902BB69DA61BB695A69BB69DB691A
:103740001A44BB695A61BB699B69002B06D1BB69EE
:103750001B781946786802F08BFC08E0BB69197881
:10376000BB695A69BB699B697868FFF7F5FB7B68A1
:103770001B68B3F844309BB21A46FA811BB2002B87
:10378000FFF6E1AC002318462437BD4690BD00BFCC
:1037900080C0FFFF80B582B000AF786008227968F2
:1037A0000348FEF7F3F900BF0837BD4680BD00BFF0
:1037B0008412002080B584B000AF0346FB71FB7912
:1037C000872B03D9FB797833FB7127E097F9073012
:1037D000002B10DA304B1B785AB2FB79803B012169
:1037E00001FA03F35BB213435BB2DAB22A4B1A70ED
:1037F0000023FB7112E0FB79284AD35CFB7197F937
:103800000730002B0ADA244B1B7843F00203DAB2AC
:10381000214B1A70FB7903F07F03FB711E4B9B78E1
:10382000FA799A422DD01C4BDB78FA799A4228D04B
:10383000194B1B79FA799A4223D0174B5B79FA79A5
:103840009A421ED0144B9B79FA799A4219D0124BA6
:10385000DB79FA799A4214D00023FB730EE0FB7BEC
:103860000D4A13449B78002B05D1FB7B0A4A134475
:10387000FA799A7005E0FB7B0133FB73FB7B052B28
:10388000EDD90548FFF786FF0520FCF77FFD00BF57
:103890001037BD4680BD00BF5001002008990008C8
:1038A00080B584B000AF0346FB71FB79872B03D949
:1038B000FB797833FB712CE097F90730002B12DA93
:1038C000254B1B785AB2FB79803B012101FA03F3A7
:1038D0005BB2DB435BB213405BB2DAB21E4B1A70D1
:1038E0000023FB7115E0FB791C4AD35CFB71FB796B
:1038F000002B2DD097F90730002B0ADA164B1B78D6
:1039000023F00203DAB2144B1A70FB7903F07F0341
:10391000FB710023FB7311E0FB79002B0BD0FB7BC9
:103920000D4A13449B78FA799A4204D1FB7B0A4AE8
:10393000134400229A70FB7B0133FB73FB7B052B46
:10394000EAD90548FFF726FF0520FCF71FFD00E038
:1039500000BF1037BD4680BD500100200899000807
:1039600080B500AF0E4B00229A700D4B0022DA702A
:103970000B4B00221A710A4B00225A71084B00228D
:103980009A71074B0022DA71054B00221A70044825
:10399000FFF700FF0520FCF7F9FC00BF80BD00BF6A
:1039A0005001002080B582B000AF0346FB71FB7967
:1039B0001846FFF7FFFEFB791846FFF771FF00BFBF
:1039C0000837BD4680BD00BF80B584B000AF7860C9
:1039D0000023FB7307E07B681B781846FFF7E2FFC4
:1039E0007B6801337B607B681B78002BF3D100BFC1
:1039F0001037BD4680BD00BF80B584B000AFF86011
:103A0000B9601346FB71FB68002B01D102231AE059
:103A1000FB68D3F81432002B03D0FB680022C3F8F4
:103A20001422BB68002B03D0FB68BA68C3F81022CD
:103A3000FB68012283F8FC21FB68FA791A70F868A8
:103A400002F086FB002318461037BD4680BD00BF3C
:103A500080B485B000AF786039600023FB733B68A9
:103A6000002B06D07B683A68C3F814220023FB734E
:103A700001E00223FB73FB7B18461437BD4680BC74
:103A8000704700BF80B582B000AF7860786802F000
:103A9000ABFB002318460837BD4680BD80B483B019
:103AA00000AF7860002318460C37BD4680BC7047D5
:103AB00080B584B000AF78600B46FB700223FB73C7
:103AC0007B68D3F81432002B0CD07B68D3F8143207
:103AD0001B68FA781146786898470346002B01D195
:103AE0000023FB73FB7B18461037BD4680BD00BF2B
:103AF00080B582B000AF78600B46FB707B68D3F86E
:103B000014325B68FA7811467868984700231846A3
:103B10000837BD4680BD00BF80B582B000AF786079
:103B200039607B6803F502733968184605F05CFD5F
:103B30007B680122C3F8F4217B68B3F80E321A4681
:103B40007B68C3F8F8217B6893F8083203F01F0301
:103B5000012B0BD0022B11D0002B17D17B6803F562
:103B600002731946786805F089F91AE07B6803F555
:103B700002731946786805F0D1F912E07B6803F505
:103B800002731946786805F0FDF90AE07B6893F83E
:103B9000083223F07F03DBB21946786802F0CAFBD3
:103BA00000BF002318460837BD4680BD80B586B0EB
:103BB00000AFF8600B467A60FB72FB7A002B38D1BD
:103BC000FB6803F582737B61FB68D3F8F431032B48
:103BD00042D17B699A687B69DB689A4214D97B6918
:103BE0009A687B69DB68D21A7B699A607B69DA68BC
:103BF0007B699B68934228BF13469BB21A4679683B
:103C0000F86805F007FE27E0FB68D3F814321B695B
:103C1000002B0AD0FB6893F8FC31032B05D1FB681D
:103C2000D3F814321B69F8689847F86805F004FE69
:103C300012E0FB68D3F814329B69002B0CD0FB68B0
:103C400093F8FC31032B07D1FB68D3F814329B693E
:103C5000FA7A1146F8689847002318461837BD4687
:103C600080BD00BF80B586B000AFF8600B467A60BB
:103C7000FB72FB7A002B6CD1FB6814337B61FB6811
:103C8000D3F8F431022B57D17B699A687B69DB68E2
:103C90009A4215D97B699A687B69DB68D21A7B697D
:103CA0009A607B699B689BB21A467968F86805F050
:103CB0009FFD002300220021F86802F03DFC3BE05C
:103CC0007B695B687A69D268B3FBF2F102FB01F2AF
:103CD0009B1A002B1CD17B695A687B69DB689A426E
:103CE00016D37B695A68FB68D3F8F8319A420FD231
:103CF00000220021F86805F07BFDFB680022C3F874
:103D0000F821002300220021F86802F015FC13E0DE
:103D1000FB68D3F81432DB68002B0AD0FB6893F8F9
:103D2000FC31032B05D1FB68D3F81432DB68F8684B
:103D30009847F86805F094FDFB6893F80032012B72
:103D40001AD1F868FFF7AAFEFB68002283F8002268
:103D500012E0FB68D3F814325B69002B0CD0FB68CF
:103D600093F8FC31032B07D1FB68D3F814325B695D
:103D7000FA7A1146F8689847002318461837BD4666
:103D800080BD00BF80B582B000AF786040230022C4
:103D90000021786802F05AFA7B684022C3F81021AB
:103DA000402300228021786802F050FA7B6840228C
:103DB0001A627B68012283F8FC217B68D3F81832F1
:103DC000002B09D07B68D3F814325B687A6852689C
:103DD000D2B2114678689847002318460837BD4686
:103DE00080BD00BF80B483B000AF78600B46FB702D
:103DF0007B68FA781A74002318460C37BD4680BCDD
:103E0000704700BF80B483B000AF78607B6893F8E0
:103E1000FC217B6883F8FD217B68042283F8FC2168
:103E2000002318460C37BD4680BC704780B483B071
:103E300000AF78607B6893F8FD217B6883F8FC21F4
:103E4000002318460C37BD4680BC704780B582B051
:103E500000AF78607B6893F8FC31032B0BD17B6853
:103E6000D3F81432DB69002B05D07B68D3F8143209
:103E7000DB6978689847002318460837BD4680BD3F
:103E800080B483B000AF7860396009E07B681A784D
:103E90003B681A707B6801337B603B6801333B6091
:103EA0007B681B78002BF1D13B6800221A7000BFA1
:103EB0000C37BD4680BC704780B586B000AF7860D7
:103EC000396001237B610023FB747B681B78002B26
:103ED00036D03B6800221A607B68FB60786800F08F
:103EE00035F8B860BB68013B7A6813447B600123F6
:103EF000FB741EE07B681B782F2B03D97B681B7833
:103F0000392B02D90023FB7413E03B681A687B68E5
:103F10001B78303B796901FB03F31A443B681A6054
:103F20007A6913469B0013445B007B617B68013B0D
:103F30007B60FA687B689A4202D8FB7C012BD9D05F
:103F4000FB7C18461837BD4680BD00BF80B485B0E5
:103F500000AF78600023FB6005E0FB680133FB6085
:103F60007B6801337B607B681B78002BF5D1FB6895
:103F700018461437BD4680BC704700BF80B485B07A
:103F800000AF78600B46FB700023FB604FF0FF33FF
:103F9000BB60FB78002B15D00CE07B681B78FA78AF
:103FA0009A4201D1FB68BB607B6801337B60FB6890
:103FB0000133FB607B681B78002B03D0BB68B3F137
:103FC000FF3FEAD0BB6818461437BD4680BC704737
:103FD00080B586B000AF7860396000237B61002334
:103FE0003B617868FFF7B2FFF8603868FFF7AEFF13
:103FF000B860FA68BB689A4219D101233B6100237B
:104000007B6110E07B681A783B681B789A4201D08C
:1040100000233B617B6801337B603B6801333B607D
:104020007B6901337B617A69FB689A42EADB3B6911
:1040300018461837BD4680BD80B588B000AFF8601F
:10404000B9607A602021F868FFF798FFB861F868D6
:10405000FFF77CFF7861BB69B3F1FF3F32D00023EB
:10406000FB610CE0FB681A78BB681A70BB6801330F
:10407000BB60FB680133FB60FB690133FB61FA69DC
:10408000BB699A42EEDBBB6800221A70FB68013301
:10409000FB60BB690133FB610CE0FB681A787B684D
:1040A0001A707B6801337B60FB680133FB60FB693E
:1040B0000133FB61FA697B699A42EEDB7B6800227F
:1040C0001A7019E00023FB610CE0FB681A78BB68EA
:1040D0001A70BB680133BB60FB680133FB60FB698E
:1040E0000133FB61FA697B699A42EEDBBB6800220F
:1040F0001A707B6800221A7000BF2037BD4680BD51
:1041000080B586B000AF786020217868FFF736FF71
:1041100078612E4A2E497868FFF78EFF7B69B3F1EC
:10412000FF3F03D12A4800F05BF849E029492848BD
:10413000FFF74EFF0346002B03D02448FFF744FC53
:104140003EE025492248FFF743FF0346002B0DD0F0
:1041500007F10C0319461D48FFF7AEFE0346002B7E
:104160002ED0FB681846FCF711F929E01B491848C6
:10417000FFF72EFF0346002B22D11BE02021786899
:10418000FFF7FCFE38613B69B3F1FF3F06D1786869
:1041900000F026F87B6800221A700BE00B4A0C49ED
:1041A0007868FFF749FF0A4800F01AF8796807486D
:1041B000FFF766FE7868FFF7C9FE0346002BDDDCDB
:1041C000FFF7CEFB00BF1837BD4680BDCC070020EF
:1041D000CC0500208899000890990008989900085B
:1041E00080B584B000AF78607868FFF7AFFE034613
:1041F000012B07D17B681B78FB73FB7B1846FFF70D
:10420000D9FAF7E1B8497868FFF7E2FE0346002BD8
:1042100003D0CE20FFF7CEFAECE1B4497868FFF77F
:10422000D7FE0346002B03D0B020FFF7C3FAE1E12D
:10423000AF497868FFF7CCFE0346002B03D08020FF
:10424000FFF7B8FAD6E1AB497868FFF7C1FE03463D
:10425000002B03D08120FFF7ADFACBE1A6497868A7
:10426000FFF7B6FE0346002B03D08220FFF7A2FA29
:10427000C0E1A2497868FFF7ABFE0346002B03D0EC
:104280008320FFF797FAB5E19D497868FFF7A0FE14
:104290000346002B03D08420FFF78CFAAAE199494A
:1042A0007868FFF795FE0346002B03D08520FFF7C3
:1042B00081FA9FE194497868FFF78AFE0346002B54
:1042C00003D08620FFF776FA94E190497868FFF7EB
:1042D0007FFE0346002B03D08720FFF76BFA89E1AE
:1042E0008B497868FFF774FE0346002B06D1894995
:1042F0007868FFF76DFE0346002B03D0DA20FFF746
:1043000059FA77E184497868FFF762FE0346002B8B
:1043100006D182497868FFF75BFE0346002B03D085
:10432000D920FFF747FA65E17D497868FFF750FE2D
:104330000346002B06D17A497868FFF749FE034609
:10434000002B03D0D820FFF735FA53E17549786880
:10435000FFF73EFE0346002B06D173497868FFF74E
:1043600037FE0346002B03D0D720FFF723FA41E1A5
:104370006E497868FFF72CFE0346002B03D0B2206D
:10438000FFF718FA36E16A497868FFF721FE03461D
:10439000002B03D0D420FFF70DFA2BE16549786894
:1043A000FFF716FE0346002B03D0D320FFF702FAD7
:1043B00020E161497868FFF70BFE0346002B03D02C
:1043C000D620FFF7F7F915E15C497868FFF700FEA2
:1043D0000346002B03D0D220FFF7ECF90AE158493D
:1043E0007868FFF7F5FD0346002B03D0B120FFF7F7
:1043F000E1F9FFE053497868FFF7EAFD0346002B37
:1044000003D0D120FFF7D6F9F4E04F497868FFF7E1
:10441000DFFD0346002B03D0B320FFF7CBF9E9E023
:104420004A497868FFF7D4FD0346002B03D0D52016
:10443000FFF7C0F9DEE046497868FFF7C9FD03469B
:10444000002B03D0C120FFF7B5F9D3E041497868CC
:10445000FFF7BEFD0346002B03D0C220FFF7AAF9E9
:10446000C8E03D497868FFF7B3FD0346002B03D051
:10447000C320FFF79FF9BDE038497868FFF7A8FD32
:104480000346002B03D0C420FFF794F9B2E034496F
:104490007868FFF79DFD0346002B03D0C520FFF78A
:1044A00089F9A7E02F497868FFF792FD0346002BB2
:1044B00003D0C620FFF77EF99CE02B497868FFF710
:1044C00087FD0346002B03D0C720FFF773F991E067
:1044D00026497868FFF77CFD0346002B48D0C820AA
:1044E000FFF768F986E000BF9C990008A8990008CA
:1044F000B0990008B8990008C0990008C49900084C
:10450000C8990008D4990008E0990008EC990008BF
:10451000F8990008FC990008049A00080C9A000811
:10452000189A0008209A0008289A0008349A00086F
:10453000409A0008489A0008509A00085C9A0008BF
:10454000649A0008689A0008709A0008749A000833
:10455000789A0008849A0008889A00088C9A0008C3
:10456000909A0008949A0008989A00089C9A00086B
:1045700022497868FFF72CFD0346002B03D0C920A1
:10458000FFF718F936E01E497868FFF721FD03466A
:10459000002B03D0CA20FFF70DF92BE019497868EA
:1045A000FFF716FD0346002B03D0CB20FFF702F9DF
:1045B00020E015497868FFF70BFD0346002B03D078
:1045C000CC20FFF7F7F815E010497868FFF700FDF9
:1045D0000346002B03D0CD20FFF7ECF80AE00C498E
:1045E0007868FFF7F5FC0346002B03D02020FFF787
:1045F000E1F8FFE700BF1037BD4680BDA09A000874
:10460000A49A0008A89A0008AC9A0008B09A00087A
:10461000B49A000880B500AFFBF76EFE00F096F884
:1046200000F0F0F805F030F94FF4FA60FBF7AEFE59
:10463000FFF796F90020FDF7F3FD0346002B6BD141
:104640006420FBF7A3FE00223449354803F03AFE0C
:104650000346002B60D1334B00221A7301223149EB
:10466000314803F077FE0346002B55D12F4B002233
:104670001A702F4B00221A702E4B00221A7036E04F
:104680002C4B1B78002B06D12B4B01222B492648A3
:1046900004F06CF806E0274B00221A70284B1A78B9
:1046A000264B1A70254B1B780A2B0FD1204B1B78F9
:1046B0001A461E4B002199541C48FFF721FD1B4B45
:1046C00000221A701A4B00221A7010E01B4B1B7844
:1046D0000D2B0CD0164B1B781A46184B1978134B20
:1046E0009954134B1B780133DAB2114B1A700E4BED
:1046F000D3F808220C4BD3F80C329A42C0D10A48A6
:1047000004F05AFA03461A460E4B1A7000224FF470
:1047100000510D4801F094FBFEE700BFBC9A000871
:1047200088030020C000002058010020CC09002090
:10473000120100201301002084030020B80500208E
:1047400014010020600C00200010014080B594B0DE
:1047500000AF0123BB624FF48033FB6200233B6355
:104760000123BB6302237B644FF48033BB644FF4AB
:104770008013FB6407F128031846FBF7C5FF0346C7
:10478000002B01D000F080F80F237B610223BB6176
:104790000023FB614FF480633B624FF480637B62D4
:1047A00007F1140301211846FCF7CEFE0346002B47
:1047B00001D000F069F810237B604FF480033B6167
:1047C0003B1D1846FBF7A2FC0346002B01D000F06E
:1047D0005BF8FDF7EFF80246094BA3FB02239B09A8
:1047E0001846FBF729FF0420FBF732FF00220021C7
:1047F0004FF0FF30FBF7F6FE00BF5037BD4680BDDF
:10480000D34D621080B588B000AF1D4A1C4B9B6928
:1048100043F0200393611A4B9B6903F02003FB6074
:10482000FB68174A164B9B6943F004039361144BD2
:104830009B6903F00403BB60BB68114A104B9B6982
:1048400043F0100393610E4B9B6903F010037B60F0
:104850007B684FF400533B6101237B610223FB61C2
:1048600007F110031946074801F074F901224FF4CB
:104870000051044801F0E4FA00BF2037BD4680BD76
:10488000001002400010014080B400AFFEE700BFFE
:1048900084B080B483B000AF786007F1140080E882
:1048A0000E00002318460C37BD4680BC04B070478C
:1048B00080B485B000AF78600023FB604FF43D43C7
:1048C000FB607B68B3F840309AB2FB689BB213433D
:1048D0009AB27B68A3F84020002318461437BD46DF
:1048E00080BC704780B485B000AF78600023FB6067
:1048F0004FF43D43FB607B68B3F840309AB2FB68ED
:104900009BB2DB439BB213409AB27B68A3F8402072
:10491000002318461437BD4680BC704780B483B06E
:1049200000AF78600B46FB70002318460C37BD467D
:1049300080BC704784B080B483B000AF786007F16A
:10494000140080E80E007B680122A3F840207B68F9
:104950000022A3F840207B680022A3F844207B6853
:104960000022A3F85020002318460C37BD4680BC17
:1049700004B0704790B484B000AF786039603B6891
:10498000DB78032B5FD801A252F823F09D49000881
:104990001B4A0008C9490008EF4900087B683A68CB
:1049A000127892001A447B683968097889000B44B0
:1049B0001B889BB223F4EC4323F070039BB243F4B7
:1049C00000739BB213803FE07B683A6812789200D4
:1049D0001A447B683968097889000B441B889BB2AC
:1049E00023F4EC4323F070039BB213802CE07B682C
:1049F0003A68127892001A447B683968097889000D
:104A00000B441B889BB223F4EC4323F070039BB24E
:104A100043F4C0639BB2138016E07B683A68127857
:104A200092001A447B683968097889000B441B8816
:104A30009BB223F4EC4323F070039BB243F48063F6
:104A40009BB2138000E000BF7B683A681278920046
:104A50001A447B683968097889000B441B8899B22D
:104A600040F60F730B4099B23B681B789BB20B4327
:104A700099B2774B0B439BB213803B689B7A002B18
:104A800040F0EC803B685B78002B4DD07B68B3F83E
:104A900050309BB21A463B681B78DB0013445B0026
:104AA0001A467B68134403F580631A463B689B886B
:104AB0005B089BB25B0013607B683A6812789200D7
:104AC00013441B889BB203F04003002B13D07B6878
:104AD0003A68127892001A447B683968097889002C
:104AE0000B441B8899B240F60F730B4099B2594B97
:104AF0000B439BB213807B683A6812789200134490
:104B00001B889BB223F4E04323F040039CB284F063
:104B100020039CB27B683A68127892001A444C4B8E
:104B200023439BB21380DEE17B68B3F850309BB225
:104B30001A463B681B78DB00134404335B001A46BB
:104B40007B68134403F580631A463B689B885B08C7
:104B50009BB25B0013607B68B3F850309BB21A467F
:104B60003B681B78DB00134406335B001A467B6806
:104B7000134403F58063BB603B681B693E2B18D967
:104B80003B681B695B09FB813B681B6903F01F03E2
:104B9000002B02D1FB89013BFB81FB899B029BB26D
:104BA0006FEA43436FEA53439BB21A46BB681A60ED
:104BB00012E03B681B695B08FB813B681B6903F0E3
:104BC0000103002B02D0FB890133FB81FB899B028F
:104BD0009BB21A46BB681A607B683A6812789200EA
:104BE00013441B889BB203F48043002B13D07B68D3
:104BF0003A68127892001A447B683968097889000B
:104C00000B441B8899B240F60F730B4099B2124BBC
:104C10000B439BB213807B683A681278920013446E
:104C20001B889BB223F4804323F070039CB284F46E
:104C300080539CB284F400539CB27B683A6812782B
:104C400092001A44024B23439BB213804BE100BFF6
:104C50008080FFFFC080FFFF80C0FFFF7B683A6855
:104C6000127892001A447B683968097889000B44ED
:104C70001B8899B240F60F630B4099B29D4B0B43D2
:104C80009BB213807B68B3F850309BB21A463B68E6
:104C90001B78DB0013445B001A467B68134403F562
:104CA00080631A463B68DB885B089BB25B0013603D
:104CB0007B68B3F850309BB21A463B681B78DB0028
:104CC000134404335B001A467B68134403F5806386
:104CD0001A463B681B895B089BB25B0013603B680C
:104CE0005B78002B40F083807B683A6812789200F2
:104CF00013441B889BB203F48043002B13D07B68C2
:104D00003A68127892001A447B68396809788900F9
:104D10000B441B8899B240F60F730B4099B2764B47
:104D20000B439BB213807B683A681278920013445D
:104D30001B889BB203F04003002B13D07B683A68BA
:104D4000127892001A447B683968097889000B440C
:104D50001B8899B240F60F730B4099B2674B0B4317
:104D60009BB213807B683A68127892001A447B6881
:104D70003968097889000B441B8899B240F60F7393
:104D80000B4099B25D4B0B439BB213807B683A6832
:104D90001278920013441B889BB223F4804323F0C3
:104DA00070039CB284F480539CB284F400539CB290
:104DB0007B683A68127892001A44514B23439BB2A5
:104DC00013807B683A681278920013441B889BB268
:104DD00023F4E04323F040039CB27B683A681278E6
:104DE00092001A44464B23439BB213807BE07B68BE
:104DF0003A681278920013441B889BB203F48043F4
:104E0000002B13D07B683A68127892001A447B68B2
:104E10003968097889000B441B8899B240F60F73F2
:104E20000B4099B2344B0B439BB213807B683A68BA
:104E30001278920013441B889BB203F04003002BAE
:104E400013D07B683A68127892001A447B683968FC
:104E5000097889000B441B8899B240F60F730B4008
:104E600099B2264B0B439BB213807B683A68127849
:104E700092001A447B683968097889000B441B88C2
:104E800099B240F60F730B4099B21B4B0B439BB288
:104E900013807B683A681278920013441B889BB297
:104EA00023F4E04323F040039CB27B683A68127815
:104EB00092001A44124B23439BB213807B683A68DA
:104EC0001278920013441B889BB223F4804323F092
:104ED00070039CB27B683A68127892001A44084BBF
:104EE00023439BB21380002318461037BD4690BC65
:104EF000704700BF8081FFFF80C0FFFFC080FFFFC1
:104F00008080FFFF90B482B000AF786039603B686A
:104F10009B7A002B6DD13B685B78002B34D07B688B
:104F20003A681278920013441B889BB203F0400346
:104F3000002B13D07B683A68127892001A447B6881
:104F40003968097889000B441B8899B240F60F73C1
:104F50000B4099B2684B0B439BB213807B683A6855
:104F60001278920013441B889BB223F4E04323F091
:104F700040039CB27B683A68127892001A445F4BF7
:104F800023439BB2138039E17B683A681278920020
:104F900013441B889BB203F48043002B13D07B681F
:104FA0003A68127892001A447B6839680978890057
:104FB0000B441B8899B240F60F730B4099B2504BCB
:104FC0000B439BB213807B683A68127892001344BB
:104FD0001B889BB223F4804323F070039CB27B6850
:104FE0003A68127892001A44444B23439BB21380D0
:104FF00004E13B685B78002B40F084807B683A6872
:105000001278920013441B889BB203F48043002B58
:1050100013D07B683A68127892001A447B6839682A
:10502000097889000B441B8899B240F60F730B4036
:1050300099B2334B0B439BB213807B683A6812786A
:10504000920013441B889BB203F04003002B13D043
:105050007B683A68127892001A447B68396809784C
:1050600089000B441B8899B240F60F730B4099B22C
:10507000214B0B439BB213807B683A6812789200F5
:105080001A447B683968097889000B441B8899B2F7
:1050900040F60F730B4099B2174B0B439BB2138032
:1050A0007B683A681278920013441B889BB223F401
:1050B000804323F070039CB27B683A6812789200B8
:1050C0001A440E4B23439BB213807B683A681278D4
:1050D000920013441B889BB223F4E04323F0400367
:1050E0009CB27B683A68127892001A44034B2343BF
:1050F0009BB2138082E000BFC080FFFF8080FFFF73
:1051000080C0FFFF7B683A681278920013441B88C6
:105110009BB203F48043002B13D07B683A6812786B
:1051200092001A447B683968097889000B441B880F
:1051300099B240F60F730B4099B2334B0B439BB2BD
:1051400013807B683A681278920013441B889BB2E4
:1051500003F04003002B13D07B683A68127892006A
:105160001A447B683968097889000B441B8899B216
:1051700040F60F730B4099B2244B0B439BB2138044
:105180007B683A68127892001A447B68396809781B
:1051900089000B441B8899B240F60F730B4099B2FB
:1051A000194B0B439BB213807B683A6812789200CC
:1051B00013441B889BB223F4E04323F040039CB2CA
:1051C0007B683A68127892001A44114B23439BB2D1
:1051D00013807B683A681278920013441B889BB254
:1051E00023F4804323F070039CB27B683A68127802
:1051F00092001A44064B23439BB2138000231846A7
:105200000837BD4690BC704780C0FFFFC080FFFFDD
:105210008080FFFF90B58DB000AF786039600023CB
:10522000FB853B689B69BB623B685B78012B40F068
:105230004E813B689A693B681B699A4209D93B6871
:105240001B69BB623B689A69BB6AD21A3B689A6168
:1052500005E03B689B69BB623B6800229A613B6842
:105260009B7A002B1CD13B6859693B689A88BB6AC2
:105270009BB2786800F08CFB7B68B3F850309BB22F
:105280001A463B681B78DB00134402335B001A4666
:105290007B68134403F580631A46BB6A1360FAE027
:1052A0007B683A681278920013441B889BB203F023
:1052B0004003002B5BD03B685B78002B3CD17B68C4
:1052C000B3F850309BB21A463B681B78DB0013449E
:1052D00006335B001A467B68134403F58063BB61A9
:1052E000BB6A3E2B16D9BB6A5B09FB84BB6A03F021
:1052F0001F03002B02D1FB8C013BFB84FB8C9B0228
:105300009BB26FEA43436FEA53439BB21A46BB69B1
:105310001A6028E0BB6A5B08FB84BB6A03F00103E8
:10532000002B02D0FB8C0133FB84FB8C9B029BB2D5
:105330001A46BB691A6016E03B685B78012B12D1F4
:105340007B68B3F850309BB21A463B681B78DB0091
:10535000134402335B001A467B68134403F58063F1
:105360001A46BB6A13603B681B89FB855AE03B68A1
:105370005B78002B3CD17B68B3F850309BB21A4667
:105380003B681B78DB00134402335B001A467B68E2
:10539000134403F580637B61BB6A3E2B16D9BB6A5D
:1053A0005B09BB84BB6A03F01F03002B02D1BB8CDB
:1053B000013BBB84BB8C9B029BB26FEA43436FEA09
:1053C00053439BB21A467B691A6028E0BB6A5B08AC
:1053D000BB84BB6A03F00103002B02D0BB8C0133FA
:1053E000BB84BB8C9B029BB21A467B691A6016E099
:1053F0003B685B78012B12D17B68B3F850309BB2CD
:105400001A463B681B78DB00134402335B001A46E4
:105410007B68134403F580631A46BB6A13603B68DC
:10542000DB88FB853B685969BB6A9BB2FA8D78685B
:1054300000F0AEFA3B685B78002B14D17B683A68C9
:10544000127892001A447B683968097889000B4405
:105450001B8899B240F60F730B4099B2944B0B43E3
:105460009BB2138017E03B685B78012B13D17B68FC
:105470003A68127892001A447B6839680978890082
:105480000B441B8899B240F60F730B4099B2894BBD
:105490000B439BB213807B683A68127892001344E6
:1054A0001B889BB223F4E04323F040039CB284F0BA
:1054B00010039CB284F020039CB27B683A68127897
:1054C00092001A447C4B23439BB2138028E13B6833
:1054D0009A693B681B699A4209D93B681B69BB62A0
:1054E0003B689A69BB6AD21A3B689A6105E03B68DF
:1054F0009B69BB623B6800229A613B689B7A002BE8
:105500003CD17B68B3F850309BB21A463B681B789D
:10551000DB00134406335B001A467B68134403F533
:1055200080633B61BB6A3E2B16D9BB6A5B097B84F7
:10553000BB6A03F01F03002B02D17B8C013B7B84F1
:105540007B8C9B029BB26FEA43436FEA53439BB24F
:105550001A463B691A60C8E0BB6A5B087B84BB6A79
:1055600003F00103002B02D07B8C01337B847B8C06
:105570009B029BB21A463B691A60B6E03B685B78B7
:10558000002B3CD17B68B3F850309BB21A463B6885
:105590001B78DB00134402335B001A467B6813441C
:1055A00003F58063FB60BB6A3E2B16D9BB6A5B09BF
:1055B0003B84BB6A03F01F03002B02D13B8C013BF1
:1055C0003B843B8C9B029BB26FEA43436FEA53439D
:1055D0009BB21A46FB681A6028E0BB6A5B083B84F2
:1055E000BB6A03F00103002B02D03B8C01333B84E8
:1055F0003B8C9B029BB21A46FB681A6016E03B6824
:105600005B78012B12D17B68B3F850309BB21A46FD
:105610003B681B78DB00134402335B001A467B684F
:10562000134403F580631A46BB6A13603B685B78DA
:10563000002B43D17B68B3F850309BB21A463B68CD
:105640001B78DB00134406335B001A467B68134467
:1056500003F58063BB60BB6A3E2B16D9BB6A5B094E
:10566000FB83BB6A03F01F03002B02D1FB8B013BC2
:10567000FB83FB8B9B029BB26FEA43436FEA53436E
:105680009BB21A46BB681A602FE0BB6A5B08FB83BB
:10569000BB6A03F00103002B02D0FB8B0133FB83B9
:1056A000FB8B9B029BB21A46BB681A601DE000BFD1
:1056B000C080FFFF80C0FFFF8080FFFF3B685B78FA
:1056C000012B12D17B68B3F850309BB21A463B686D
:1056D0001B78DB00134402335B001A467B681344DB
:1056E00003F580631A46BB6A13607B683A681278D8
:1056F000920013441B889BB223F4804323F0700371
:105700009CB284F480539CB284F400539CB27B68B6
:105710003A68127892001A44044B23439BB21380D8
:10572000002318463437BD4690BD00BF8080FFFF80
:1057300090B482B000AF786039603B681B78002B72
:1057400018D17B683A681278920013441B889BB288
:105750004BF6BF741C4084F4805484F010047B68C2
:105760003A68127892001A44A1B2204B0B439BB2C4
:10577000138034E03B685B78002B18D07B683A6874
:105780001278920013441B889BB223F4E04323F069
:1057900040039CB284F010039CB27B683A68127894
:1057A00092001A44114B23439BB2138017E07B688D
:1057B0003A681278920013441B889BB223F480430A
:1057C00023F070039CB284F480539CB27B683A68E7
:1057D000127892001A44054B23439BB21380002396
:1057E00018460837BD4690BC704700BF8080FFFF59
:1057F00090B482B000AF786039603B685B78002B72
:105800003AD07B683A681278920013441B889BB2A6
:1058100003F04003002B13D07B683A6812789200A3
:105820001A447B683968097889000B441B8899B24F
:1058300040F60F730B4099B22F4B0B439BB2138072
:105840007B683A681278920013441B889BB223F459
:10585000E04323F040039CB284F010039CB284F038
:1058600020039CB27B683A68127892001A44234B5A
:1058700023439BB2138039E07B683A681278920028
:1058800013441B889BB203F48043002B13D07B6826
:105890003A68127892001A447B683968097889005E
:1058A0000B441B8899B240F60F730B4099B2144B0E
:1058B0000B439BB213807B683A68127892001344C2
:1058C0001B889BB223F4804323F070039CB284F4C2
:1058D00080539CB284F400539CB27B683A6812787F
:1058E00092001A44054B23439BB2138000231846B1
:1058F0000837BD4690BC7047C080FFFF8080FFFF27
:1059000080C0FFFF80B483B000AF78600B46FB70AF
:10591000FB78002B03D17B688022A3F84C20002366
:1059200018460C37BD4680BC704700BF80B483B0BA
:1059300000AF7860002318460C37BD4680BC704726
:1059400080B483B000AF7860002318460C37BD46A2
:1059500080BC704780B485B000AF78600023FB60E6
:105960007B68B3F844309BB2FB60FB681846143781
:10597000BD4680BC704700BF80B483B000AF786084
:105980003960002318460C37BD4680BC704700BF05
:1059900080B48BB000AFF860B96011461A460B4670
:1059A000FB801346BB80BB8801335B10FB61002387
:1059B0007B620023BB6100237B6100233B62FB8889
:1059C0005B001A46FB68134403F580633B62FB6986
:1059D0007B621BE0BB681B78BB61BB680133BB60AB
:1059E000BB681B781B021A46BB6913437B613B6A89
:1059F0009A1C3A627A6992B21A803B6A02333B621D
:105A0000BB680133BB607B6A013B7B627B6A002B16
:105A1000E0D100BF2C37BD4680BC704780B489B050
:105A200000AFF860B96011461A460B46FB8013467A
:105A3000BB80BB8801335B107B610023FB610023CB
:105A4000BB61FB885B001A46FB68134403F5806367
:105A5000BB617B69FB610EE0BB685A1CBA60BA6926
:105A6000111DB961126892B21A80BB680133BB6024
:105A7000FB69013BFB61FB69002BEDD100BF2437C3
:105A8000BD4680BC704700BF80B582B000AF786073
:105A90007B68002B01D1012356E07B6893F85130DD
:105AA000DBB2002B02D1786800F0ECFD7B680222AB
:105AB00083F851207B681B687A681268126822F0AC
:105AC00040021A607B681B687A6851687A6892683D
:105AD00011437A68D26811437A68126911437A686F
